:100000000C942A001895000018950000189500001F
:10001000189500001895000018950000189500002C
:10002000189500001895000018950000189500001C
:10003000189500001895000018950000189500000C
:1000400018950000189500001895000018950000FC
:10005000189500008FE58DBFC8E3E0E24E2E88E0E2
:100060008EBFD8E0F8E05F2EA89584B7082E877F72
:1000700084BF88E1992781BD91BDEEEFF7E0A0E64E
:10008000B0E088278D933197E9F783E389B980E061
:1000900080BD88E18AB966248D9A8C9A81EA8FBDE9
:1000A00083E08EBD8E9A85E083BFBC9AD598B89ABE
:1000B000B998BA9ABB98E6E3F5E00E9400020E9464
:1000C0000702969882E390E0A4E7B0E08D939C93BA
:1000D00080E090E0A8E7B0E08D939C938FEF90E0F4
:1000E00090934B0080934A008FEF90E090934900EB
:1000F000809348000C946E000E9434010E94F2002C
:100100000E947601A0E6B0E00D911C9144E650E01B
:100110000E942602A6E6B0E00D931C93A6E6B0E08E
:100120000D911C9140E051E00E94DE01ACE6B0E090
:100130004D935C93A2E6B0E00D911C9144E650E033
:100140000E942602A8E6B0E00D931C93A8E6B0E05A
:100150000D911C9140E051E00E94DE01AEE6B0E05E
:100160004D935C93A4E6B0E00D911C9144E650E001
:100170000E942602AAE6B0E00D931C93AAE6B0E026
:100180000D911C9140E051E00E94DE01A0E7B0E03B
:100190004D935C93A8E0B8E0E0E7F0E00E944202F3
:1001A0000E94F801E6E4F5E00E940002A8E0B8E051
:1001B000EEE6F0E00E9442020E94F801E6E4F5E07B
:1001C0000E940002A8E0B8E0ECE6F0E00E944202E3
:1001D0000E94F8010E94070282E390E00E94170249
:1001E0000C947C00C498EF93FF93E0E1F0E00E9450
:1001F0000E02FF91EF91C49AEF93FF93E4E2F0E0D7
:100200000E940E02FF91EF91C49870E072BFCD9BE7
:10021000FECF85E083BFCD990C94180182B7A0E68C
:10022000B0E08D9388278C93882783BF0C942D0191
:10023000A8E5B0E00C9100FB16F00C942B01882788
:1002400083BF71E078BF8FEF90E0A0E6B0E08D93C0
:100250009C930C942D010C940B01882783BF8FE095
:1002600090E00E9417020895C098EF93FF93E0E199
:10027000F0E00E940E02FF91EF91C09AEF93FF937E
:10028000E4E2F0E00E940E02FF91EF91C09870E06E
:1002900072BFB19BFECF85E083BFB1990C945A0128
:1002A00082B7A2E6B0E08D9388278C93882783BF1E
:1002B0000C946F01A8E5B0E00C9100FB16F00C94D3
:1002C0006D01882783BF71E078BF8FEF90E0A2E6D1
:1002D000B0E08D939C930C946F010C944D01882792
:1002E00083BF8FE090E00E9417020895C298EF93B9
:1002F000FF93E0E1F0E00E940E02FF91EF91C29ABD
:10030000EF93FF93E4E2F0E00E940E02FF91EF9181
:10031000C29870E072BFB39BFECF85E083BFB399F4
:100320000C949C0182B7A4E6B0E08D9388278C934F
:10033000882783BF0C94B101A8E5B0E00C9100FBC5
:1003400016F00C94AF01882783BF71E078BF8FEF60
:1003500090E0A4E6B0E08D939C930C94B1010C94D2
:100360008F01882783BF8FE090E00E9417020895D5
:1003700009D00E94260200FC10D0089503D01ED0A0
:1003800001F8F9CF0024E89457FF02C009D068941F
:1003900000F80BD010F80124089502D009D0089578
:1003A000509540954F5F5F4F0895E89417FF08956B
:1003B000009510950F5F1F4F68940895352F242FD7
:1003C000E894452B11F468940895512F402F00278D
:1003D000112780E1440F551F001F111F021B130B33
:1003E000416018F4020F131F4E7F8A9599F7089504
:1003F000A8E0B8E08D91882311F00CD0FBCF0895D0
:100400000E943002802D11F005D0FACF08958DE0C2
:1004100001D08AE05D9BFECF8CB908953197F1F74A
:100420000895689462F80895E89462F80895EF9347
:10043000FF93EE27E82BE92B31F0E0EDF7E0319761
:10044000F1F70197D1F7FF91EF9108950F92B8015D
:10045000469F8001479F100D569F100D0F900895E5
:10046000C895319600200895000F111F221F331FD9
:10047000089500951095209530950F5F1F4F2F4FD1
:100480003F4F0895019110810EC00191119121916A
:1004900030810BC00191108117FF05C03FEF2FEF96
:1004A00004C0008111272227332737FF03C0E1DF73
:1004B0008DE28D93CF93DF93CF92DF92EF92AA24B8
:1004C000BB24CC24DD24EE2440E2CAE0DD2755E045
:1004D00093E38881890F87FD9F7083FD907F891B3F
:1004E00089935A95A9F7C0DFAA1CBB1CCC1CDD1C44
:1004F000EE1C4A9551F7E894EFE0FF2782910ED069
:10050000EB30E0F71EF068948A2D0CD088278D938D
:10051000EF90DF90CF90DF91CF910895982F829543
:1005200001D0892F8F70805D26F0803309F4089503
:1005300068948D930895617373616C616D75616CDE
:0A05400061696B756D00202000005A
:00000001FF
