:100000000C942A001895000018950000189500001F
:10001000189500001895000018950000189500002C
:10002000189500001895000018950000189500001C
:10003000189500001895000018950000189500000C
:1000400018950000189500001895000018950000FC
:10005000189500008FE58DBFC8E3E0E24E2E88E0E2
:100060008EBFD8E0F8E05F2EA89584B7082E877F72
:1000700084BF88E1992781BD91BDEEEFF7E0A0E64E
:10008000B0E088278D933197E9F783E389B980E061
:1000900080BD88E18AB9662478948D9A8C9A81EA29
:1000A0008FBD83E08EBD8E9A85E083BFBC9AD598C4
:1000B000B89AB998BA9ABB9888988998909A919A60
:1000C00086E886B980E487B9379AE4E2FAE00E94CC
:1000D000C1040E94C804969882E390E0A4E7B0E0CF
:1000E0008D939C9380E090E0A8E7B0E08D939C9383
:1000F0000E94F5030E94B3030E943704A0E6B0E01B
:100100000D911C9144E650E00E94E704A6E6B0E0A1
:100110000D931C93A6E6B0E00D911C9140E051E0D8
:100120000E949F04ACE6B0E04D935C93A2E6B0E081
:100130000D911C9144E650E00E94E704A8E6B0E06F
:100140000D931C93A8E6B0E00D911C9140E051E0A6
:100150000E949F04AEE6B0E04D935C93A4E6B0E04D
:100160000D911C9144E650E00E94E704AAE6B0E03D
:100170000D931C93AAE6B0E00D911C9140E051E074
:100180000E949F04A0E7B0E04D935C9307B1007E0E
:10019000016007B90E94F104A0E8B0E08D939C9340
:1001A00007B1007E026007B90E94F104A2E8B0E046
:1001B0008D939C9307B1007E036007B90E94F10400
:1001C000A4E8B0E08D939C9307B1007E046007B96A
:1001D0000E94F104A6E8B0E08D939C93A0E8B0E003
:1001E0000D911C910C3251E015071CF011F00C948C
:1001F000FB000C94FD000E949603A4E8B0E00D9172
:100200001C910C3F53E015071CF011F00C940A01EF
:100210000C940C010E9496030E94B904A8E8B0E077
:100220008D9388278C93A8E8B0E0E4E3FAE00E947D
:10023000FE0411F00C944B018FEF90E090934B0073
:1002400080934A0080E090E09093490080934800BA
:100250000E943704A4E6B0E00D911C9144E650E002
:100260000E94E704AAE6B0E00D931C93AAE6B0E072
:100270000D911C9140E051E00E949F04A0E7B0E086
:100280004D935C93A0E7B0E00D911C91053050E0D8
:10029000150708F0DDCFA8E8B0E0E6E3FAE00E9439
:1002A000FE0411F00C94830180E090E090934B00E9
:1002B00080934A008FEF90E090934900809348002C
:1002C0000E94B303A0E6B0E00D911C9144E650E01B
:1002D0000E94E704A6E6B0E00D931C93A6E6B0E00A
:1002E0000D911C9140E051E00E949F04ACE6B0E00B
:1002F0004D935C93ACE6B0E00D911C91053050E05D
:10030000150708F0DDCFACE6B0E00D911C9105308B
:1003100050E0150780E010F009F081E08F93AEE621
:10032000B0E00D911C91043050E0150780E010F012
:1003300009F081E09F9189238F93A0E7B0E00D91B0
:100340001C91053050E0150780E010F009F081E0C5
:100350009F918923882311F40C94D201A2E7B0E085
:100360000D911C91003050E015070CF402C00C9464
:10037000BF018DEF9FEFA2E7B0E08D939C93A2E7C2
:10038000B0E00D911C91003050E015071CF011F009
:100390000C94CC010C94D20183E090E0A2E7B0E091
:1003A0008D939C93ACE6B0E00D911C91053050E02C
:1003B000150781E008F080E08F93AEE6B0E00D9184
:1003C0001C91043050E0150780E010F009F081E046
:1003D0009F9189238F93A0E7B0E00D911C91053088
:1003E00050E0150780E010F009F081E09F9189232B
:1003F000882311F40C941C02AEE6B0E04D915C91A0
:10040000ACE6B0E00D911C910417150710F00C94A8
:100410001C02A0E7B0E04D915C91ACE6B0E00D911C
:100420001C910417150710F00C941C028EEF9FEF1F
:10043000A2E7B0E08D939C93ACE6B0E00D911C91E7
:10044000053050E0150781E008F080E08F93AEE6BC
:10045000B0E00D911C91043050E0150781E008F0E8
:1004600080E09F9189238F93A0E7B0E00D911C91CC
:10047000053050E0150780E010F009F081E09F9111
:100480008923882311F40C946502ACE6B0E04D9109
:100490005C91AEE6B0E00D911C910417150710F0C9
:1004A0000C946502A0E7B0E04D915C91AEE6B0E03F
:1004B0000D911C910417150710F00C9465028FEF35
:1004C0009FEFA2E7B0E08D939C93AEE6B0E00D9174
:1004D0001C91043050E0150781E008F080E08F9314
:1004E000ACE6B0E00D911C91053050E0150781E0BD
:1004F00008F080E09F9189238F93A0E7B0E00D91F1
:100500001C91053050E0150781E008F080E09F91D4
:100510008923882311F40C94930280E090E0A2E7F1
:10052000B0E08D939C93A0E7B0E00D911C91053055
:1005300050E0150781E008F080E08F93AEE6B0E070
:100540000D911C91043050E0150780E010F009F087
:1005500081E09F9189238F93ACE6B0E00D911C91CF
:10056000053050E0150780E010F009F081E09F9120
:100570008923882311F40C94DD02AEE6B0E04D919E
:100580005C91A0E7B0E00D911C910417150710F0E5
:100590000C94DD02ACE6B0E04D915C91A0E7B0E0D8
:1005A0000D911C910417150710F00C94DD0282E0E8
:1005B00090E0A2E7B0E08D939C93A0E7B0E00D91AE
:1005C0001C91053050E0150781E008F080E08F9322
:1005D000AEE6B0E00D911C91043050E0150781E0CB
:1005E00008F080E09F9189238F93ACE6B0E00D91F5
:1005F0001C91053050E0150780E010F009F081E013
:100600009F918923882311F40C942603A0E7B0E07E
:100610004D915C91AEE6B0E00D911C910417150769
:1006200010F00C942603ACE6B0E04D915C91AEE680
:10063000B0E00D911C910417150710F00C942603DF
:1006400081E090E0A2E7B0E08D939C93A8E7B0E052
:100650000D911C91A2E7B0E04D915C91041B150B2C
:10066000A6E7B0E00D931C93A4E7B0E00D911C91B8
:10067000A6E7B0E04D915C910E94E704AAE7B0E0E4
:100680000D931C930FEF10E0AAE7B0E04D915C9141
:10069000040F151FACE7B0E00D931C930FEF10E0B3
:1006A000AAE7B0E04D915C91041B150BAEE7B0E0FA
:1006B0000D931C93ACE7B0E00D911C910F3F50E0FF
:1006C00015071CF011F00C9467030C946D038FEF69
:1006D00090E0ACE7B0E08D939C93AEE7B0E00D9175
:1006E0001C910F3F50E015071CF011F00C947A0399
:1006F0000C9480038FEF90E0AEE7B0E08D939C9375
:10070000AEE7B0E08D919C9190934B0080934A00AE
:10071000ACE7B0E08D919C919093490080934800A4
:1007200085E090E00E94D8040C94780080E090E08E
:1007300090934B0080934A0080E090E090934900B2
:1007400080934800969A8CE291E00E94D8048FEF43
:1007500090E090934B0080934A008CE291E00E94DD
:10076000D80496980895C498EF93FF93E0E1F0E0E1
:100770000E94CF04FF91EF91C49AEF93FF93E4E2BC
:10078000F0E00E94CF04FF91EF91C49870E072BF37
:10079000CD9BFECF85E083BFCD990C94D90382B762
:1007A000A0E6B0E08D9388278C93882783BF0C94B4
:1007B000EE03A8E5B0E00C9100FB16F00C94EC03FE
:1007C000882783BF71E078BF8FEF90E0A0E6B0E0AC
:1007D0008D939C930C94EE030C94CC03882783BFD9
:1007E0008FE090E00E94D8040895C098EF93FF93A3
:1007F000E0E1F0E00E94CF04FF91EF91C09AEF9307
:10080000FF93E4E2F0E00E94CF04FF91EF91C098E3
:1008100070E072BFB19BFECF85E083BFB1990C94AD
:100820001B0482B7A2E6B0E08D9388278C938827BB
:1008300083BF0C943004A8E5B0E00C9100FB16F0E7
:100840000C942E04882783BF71E078BF8FEF90E06F
:10085000A2E6B0E08D939C930C9430040C940E04AB
:10086000882783BF8FE090E00E94D8040895C29843
:10087000EF93FF93E0E1F0E00E94CF04FF91EF914E
:10088000C29AEF93FF93E4E2F0E00E94CF04FF915D
:10089000EF91C29870E072BFB39BFECF85E083BF3B
:1008A000B3990C945D0482B7A4E6B0E08D938827D9
:1008B0008C93882783BF0C947204A8E5B0E00C9158
:1008C00000FB16F00C947004882783BF71E078BF9A
:1008D0008FEF90E0A4E6B0E08D939C930C947204AB
:1008E0000C945004882783BF8FE090E00E94D804C6
:1008F000089509D00E94E70400FC10D0089503D0A9
:100900001ED001F8F9CF0024E89457FF02C009D0A7
:10091000689400F80BD010F80124089502D009D093
:100920000895509540954F5F5F4F0895E89417FFE5
:100930000895009510950F5F1F4F68940895352F07
:10094000242FE894452B11F468940895512F402FDB
:100950000027112780E1440F551F001F111F021BA4
:10096000130B416018F4020F131F4E7F8A9599F7FD
:10097000089588275F9B089500C05F9BFECF8CB1D0
:1009800008950E94FA04802D11F005D0FACF089541
:100990008DE001D08AE05D9BFECF8CB90895319740
:1009A000F1F70895689462F80895E89462F808955C
:1009B000EF93FF93EE27E82BE92B31F0E0EDF7E022
:1009C0003197F1F70197D1F7FF91EF9108950F92C9
:1009D000B801469F8001479F100D569F100D0F9044
:1009E0000895369A3699FECF369A3699FECF84B15D
:1009F00095B10895C895319600200895689401C076
:100A0000E894AF93BF938D9116F0919103C00E942B
:100A1000FA04902D891718F011F48823A1F7BF91DB
:100A2000AF910895617373616C616D75616C6169FB
:080A30006B756D00320031000E
:00000001FF
