:100000000C942A001895000018950000189500001F
:10001000189500001895000018950000189500002C
:10002000189500001895000018950000189500001C
:10003000189500001895000018950000189500000C
:1000400018950000189500001895000018950000FC
:10005000189500008FE58DBFC8E3E0E24E2E88E0E2
:100060008EBFD8E0F8E05F2EA89584B7082E877F72
:1000700084BF88E1992781BD91BDEEEFF7E0A0E64E
:10008000B0E088278D933197E9F783E389B980E061
:1000900080BD88E18AB966248D9A8C9A81EA8FBDE9
:1000A00083E08EBD8E9A86E886B980E487B9379A58
:1000B00085E083BFBC9AA598B89AB998BA9ABB98BC
:1000C000EEE1FAE00E9451040E945804969882E3FF
:1000D00090E0A4E7B0E08D939C9380E090E0A8E7E7
:1000E000B0E08D939C930E944104A8E8B0E08D930A
:1000F00088278C93A8E8B0E0EEE2FAE00E94FB04C7
:1001000011F00C948F0080E090E090934B0080936E
:100110004A008FEF90E09093490080934800A8E850
:10012000B0E0E0E3FAE00E94FB0411F00C94A400BC
:100130008FEF90E090934B0080934A0080E090E036
:100140009093490080934800A8E8B0E0E2E3FAE029
:100150000E94FB0411F00C94B90080E090E09093B1
:100160004B0080934A0080E090E090934900809398
:1001700048000C9473000E947D030E943B030E9480
:10018000BF03A0E6B0E00D911C9144E650E00E9450
:100190007D04A6E6B0E00D931C93A6E6B0E00D91B9
:1001A0001C9140E051E00E942704ACE6B0E04D9382
:1001B0005C93A2E6B0E00D911C9144E650E00E94F1
:1001C0007D04A8E6B0E00D931C93A8E6B0E00D9185
:1001D0001C9140E051E00E942704AEE6B0E04D9350
:1001E0005C93A4E6B0E00D911C9144E650E00E94BF
:1001F0007D04AAE6B0E00D931C93AAE6B0E00D9151
:100200001C9140E051E00E942704A0E7B0E04D932C
:100210005C93ACE6B0E00D911C910A3050E01507FC
:1002200080E010F009F081E08F93AEE6B0E00D9130
:100230001C910A3050E0150780E010F009F081E0D1
:100240009F9189238F93A0E7B0E00D911C910A3014
:1002500050E0150780E010F009F081E09F918923BC
:10026000882311F40C945801A2E7B0E00D911C9181
:10027000003050E015070CF402C00C9445018DEFDE
:100280009FEFA2E7B0E08D939C93A2E7B0E00D91C1
:100290001C91003050E015071CF011F00C94520135
:1002A0000C94580183E090E0A2E7B0E08D939C931A
:1002B000ACE6B0E00D911C910A3050E0150781E0EA
:1002C00008F080E08F93AEE6B0E00D911C910A300B
:1002D00050E0150780E010F009F081E09F9189233C
:1002E0008F93A0E7B0E00D911C910A3050E0150704
:1002F00080E010F009F081E09F918923882311F4B8
:100300000C9488018EEF9FEFA2E7B0E08D939C9351
:10031000ACE6B0E00D911C910A3050E0150781E089
:1003200008F080E08F93AEE6B0E00D911C910A30AA
:1003300050E0150781E008F080E09F9189238F93BA
:10034000A0E7B0E00D911C910A3050E0150780E065
:1003500010F009F081E09F918923882311F40C9417
:10036000B7018FEF9FEFA2E7B0E08D939C93AEE6CD
:10037000B0E00D911C910A3050E0150781E008F0C3
:1003800080E08F93ACE6B0E00D911C910A3050E014
:10039000150781E008F080E09F9189238F93A0E703
:1003A000B0E00D911C910A3050E0150781E008F093
:1003B00080E09F918923882311F40C94E50180E06B
:1003C00090E0A2E7B0E08D939C93AEE6B0E00D9193
:1003D0001C910A3050E0150781E008F080E08F930F
:1003E000ACE6B0E00D911C910A3050E0150780E0BA
:1003F00010F009F081E09F9189238F93A0E7B0E08E
:100400000D911C910A3050E0150780E010F009F0C2
:1004100081E09F918923882311F40C94150280E0D8
:1004200090E0A2E7B0E08D939C93A0E7B0E00D913F
:100430001C910A3050E0150781E008F080E08F93AE
:10044000AEE6B0E00D911C910A3050E0150780E057
:1004500010F009F081E09F9189238F93ACE6B0E022
:100460000D911C910A3050E0150780E010F009F062
:1004700081E09F918923882311F40C94450282E046
:1004800090E0A2E7B0E08D939C93A0E7B0E00D91DF
:100490001C910A3050E0150781E008F080E08F934E
:1004A000AEE6B0E00D911C910A3050E0150781E0F6
:1004B00008F080E09F9189238F93ACE6B0E00D9126
:1004C0001C910A3050E0150780E010F009F081E03F
:1004D0009F918923882311F40C94740281E090E0A9
:1004E000A2E7B0E08D939C93A8E0B8E0E0E7F0E0ED
:1004F0000E94A2040E944904E4E3FAE00E9451042D
:10050000A8E0B8E0EEE6F0E00E94A2040E944904F0
:10051000E4E3FAE00E945104A8E0B8E0ECE6F0E081
:100520000E94A2040E9449040E94580407B1007E60
:10053000016007B90E948704A0E8B0E08D939C9306
:1005400007B1007E026007B90E948704A2E8B0E00C
:100550008D939C9307B1007E036007B90E948704C6
:10056000A4E8B0E08D939C9307B1007E046007B9C6
:100570000E948704A6E8B0E08D939C93A8E7B0E0C2
:100580000D911C91A2E7B0E04D915C91041B150BFD
:10059000A6E7B0E00D931C93A4E7B0E00D911C9189
:1005A000A6E7B0E04D915C910E947D04AAE7B0E01F
:1005B0000D931C930FEF10E0AAE7B0E04D915C9112
:1005C000040F151FACE7B0E00D931C930FEF10E084
:1005D000AAE7B0E04D915C91041B150BAEE7B0E0CB
:1005E0000D931C93ACE7B0E00D911C910F3F50E0D0
:1005F00015071CF011F00C94FF020C9405038FEF0B
:1006000090E0ACE7B0E08D939C93AEE7B0E00D9145
:100610001C910F3F50E015071CF011F00C941203D1
:100620000C9418038FEF90E0AEE7B0E08D939C93AD
:1006300085E090E00E946E040C94BB0080E090E0A6
:1006400090934B0080934A0080E090E090934900A3
:1006500080934800969AECE2F1E00E945F048FEFED
:1006600090E090934B0080934A00ECE2F1E00E940E
:100670005F0496980895C498EF93FF93E0E1F0E04B
:100680000E946504FF91EF91C49AEF93FF93E4E217
:10069000F0E00E946504FF91EF91C49870E072BF92
:1006A0009D9BFECF85E083BF9D990C94610382B72B
:1006B000A0E6B0E08D9388278C93882783BF0C94A5
:1006C0007603A8E5B0E00C9100FB16F00C947403DF
:1006D000882783BF71E078BF8FEF90E0A0E6B0E09D
:1006E0008D939C930C9476030C945403882783BFBA
:1006F0008FE090E00E946E040895C098EF93FF93FE
:10070000E0E1F0E00E946504FF91EF91C09AEF9361
:10071000FF93E4E2F0E00E946504FF91EF91C0983E
:1007200070E072BFB19BFECF85E083BFB1990C949E
:10073000A30382B7A2E6B0E08D9388278C93882725
:1007400083BF0C94B803A8E5B0E00C9100FB16F051
:100750000C94B603882783BF71E078BF8FEF90E0D9
:10076000A2E6B0E08D939C930C94B8030C9496038E
:10077000882783BF8FE090E00E946E040895C2989E
:10078000EF93FF93E0E1F0E00E946504FF91EF91A9
:10079000C29AEF93FF93E4E2F0E00E946504FF91B8
:1007A000EF91C29870E072BFB39BFECF85E083BF2C
:1007B000B3990C94E50382B7A4E6B0E08D93882743
:1007C0008C93882783BF0C94FA03A8E5B0E00C91C2
:1007D00000FB16F00C94F803882783BF71E078BF04
:1007E0008FEF90E0A4E6B0E08D939C930C94FA0315
:1007F0000C94D803882783BF8FE090E00E946E049A
:10080000089509D00E947D0400FC10D0089503D003
:100810001ED001F8F9CF0024E89457FF02C009D098
:10082000689400F80BD010F80124089502D009D084
:100830000895509540954F5F5F4F0895E89417FFD6
:100840000895009510950F5F1F4F68940895352FF8
:10085000242FE894452B11F468940895512F402FCC
:100860000027112780E1440F551F001F111F021B95
:10087000130B416018F4020F131F4E7F8A9599F7EE
:10088000089588275F9B089500C05F9BFECF8CB1C1
:100890000895A8E0B8E08D91882311F00CD0FBCF2B
:1008A00008950E949004802D11F005D0FACF08958C
:1008B0008DE001D08AE05D9BFECF8CB9089588EE73
:1008C00093E00CD03197D9F708953197F1F7089557
:1008D000689462F80895E89462F80895EF93FF939E
:1008E000EE27E82BE92B31F0E0EDF7E03197F1F757
:1008F0000197D1F7FF91EF9108950F92B801469FAC
:100900008001479F100D569F100D0F900895369A45
:100910003699FECF369A3699FECF84B195B10895B7
:10092000C895319600200895000F111F221F331F14
:10093000089500951095209530950F5F1F4F2F4F0C
:100940003F4F0895019110810EC0019111912191A5
:1009500030810BC00191108117FF05C03FEF2FEFD1
:1009600004C0008111272227332737FF03C0E1DFAE
:100970008DE28D93CF93DF93CF92DF92EF92AA24F3
:10098000BB24CC24DD24EE2440E2CAE0DD2755E080
:1009900093E38881890F87FD9F7083FD907F891B7A
:1009A00089935A95A9F7C0DFAA1CBB1CCC1CDD1C7F
:1009B000EE1C4A9551F7E894EFE0FF2782910ED0A4
:1009C000EB30E0F71EF068948A2D0CD088278D93C9
:1009D000EF90DF90CF90DF91CF910895982F82957F
:1009E00001D0892F8F70805D26F0803309F408953F
:1009F00068948D930895689401C0E894AF93BF9371
:100A00008D9116F0919103C00E949004902D89174A
:100A100018F011F48823A1F7BF91AF910895617385
:100A200073616C616D75616C61696B756D0031002E
:080A300032003000202000001C
:00000001FF
